{
  "_format": "hh-sol-artifact-1",
  "contractName": "ICO",
  "sourceName": "contracts/ICO.sol",
  "abi": [
    {
      "inputs": [
        {
          "internalType": "address",
          "name": "_wallet",
          "type": "address"
        },
        {
          "internalType": "contract IERC20",
          "name": "_token",
          "type": "address"
        },
        {
          "internalType": "contract IERC20",
          "name": "_saleToken",
          "type": "address"
        },
        {
          "internalType": "uint256",
          "name": "_depositDeadline",
          "type": "uint256"
        },
        {
          "internalType": "uint256",
          "name": "_cliff",
          "type": "uint256"
        },
        {
          "internalType": "uint256",
          "name": "_unlockPercentAtCliff",
          "type": "uint256"
        },
        {
          "internalType": "uint256",
          "name": "_unlockFrequency",
          "type": "uint256"
        },
        {
          "internalType": "uint256",
          "name": "_unlockPercent",
          "type": "uint256"
        }
      ],
      "stateMutability": "nonpayable",
      "type": "constructor"
    },
    {
      "anonymous": false,
      "inputs": [
        {
          "indexed": true,
          "internalType": "address",
          "name": "sender",
          "type": "address"
        },
        {
          "indexed": true,
          "internalType": "address",
          "name": "receiver",
          "type": "address"
        },
        {
          "indexed": false,
          "internalType": "uint256",
          "name": "amount",
          "type": "uint256"
        }
      ],
      "name": "Deposit",
      "type": "event"
    },
    {
      "anonymous": false,
      "inputs": [
        {
          "indexed": true,
          "internalType": "address",
          "name": "previousOwner",
          "type": "address"
        },
        {
          "indexed": true,
          "internalType": "address",
          "name": "newOwner",
          "type": "address"
        }
      ],
      "name": "OwnershipTransferred",
      "type": "event"
    },
    {
      "anonymous": false,
      "inputs": [
        {
          "indexed": true,
          "internalType": "uint8",
          "name": "saleId",
          "type": "uint8"
        },
        {
          "components": [
            {
              "internalType": "bool",
              "name": "lockIn",
              "type": "bool"
            },
            {
              "internalType": "uint8",
              "name": "icoRate",
              "type": "uint8"
            },
            {
              "internalType": "uint256",
              "name": "startTime",
              "type": "uint256"
            },
            {
              "internalType": "uint256",
              "name": "endTime",
              "type": "uint256"
            },
            {
              "internalType": "uint256",
              "name": "minAmount",
              "type": "uint256"
            },
            {
              "internalType": "uint256",
              "name": "maxAmount",
              "type": "uint256"
            },
            {
              "internalType": "uint256",
              "name": "fundingTarget",
              "type": "uint256"
            }
          ],
          "indexed": false,
          "internalType": "struct ICO.Sale",
          "name": "saleInfo",
          "type": "tuple"
        }
      ],
      "name": "SaleCreated",
      "type": "event"
    },
    {
      "anonymous": false,
      "inputs": [
        {
          "indexed": true,
          "internalType": "uint8",
          "name": "saleId",
          "type": "uint8"
        },
        {
          "components": [
            {
              "internalType": "bool",
              "name": "lockIn",
              "type": "bool"
            },
            {
              "internalType": "uint8",
              "name": "icoRate",
              "type": "uint8"
            },
            {
              "internalType": "uint256",
              "name": "startTime",
              "type": "uint256"
            },
            {
              "internalType": "uint256",
              "name": "endTime",
              "type": "uint256"
            },
            {
              "internalType": "uint256",
              "name": "minAmount",
              "type": "uint256"
            },
            {
              "internalType": "uint256",
              "name": "maxAmount",
              "type": "uint256"
            },
            {
              "internalType": "uint256",
              "name": "fundingTarget",
              "type": "uint256"
            }
          ],
          "indexed": false,
          "internalType": "struct ICO.Sale",
          "name": "saleInfo",
          "type": "tuple"
        }
      ],
      "name": "SaleUpdated",
      "type": "event"
    },
    {
      "anonymous": false,
      "inputs": [
        {
          "indexed": true,
          "internalType": "address",
          "name": "purchaser",
          "type": "address"
        },
        {
          "indexed": false,
          "internalType": "uint256",
          "name": "value",
          "type": "uint256"
        },
        {
          "indexed": false,
          "internalType": "uint256",
          "name": "amount",
          "type": "uint256"
        }
      ],
      "name": "TokenPurchase",
      "type": "event"
    },
    {
      "anonymous": false,
      "inputs": [
        {
          "indexed": false,
          "internalType": "uint256",
          "name": "timelime",
          "type": "uint256"
        }
      ],
      "name": "UpdateLockInDeadLine",
      "type": "event"
    },
    {
      "anonymous": false,
      "inputs": [
        {
          "indexed": true,
          "internalType": "address",
          "name": "sender",
          "type": "address"
        },
        {
          "indexed": true,
          "internalType": "address",
          "name": "receiver",
          "type": "address"
        },
        {
          "indexed": false,
          "internalType": "uint256",
          "name": "amount",
          "type": "uint256"
        }
      ],
      "name": "Withdraw",
      "type": "event"
    },
    {
      "stateMutability": "nonpayable",
      "type": "fallback"
    },
    {
      "inputs": [],
      "name": "acceptToken",
      "outputs": [
        {
          "internalType": "contract IERC20",
          "name": "",
          "type": "address"
        }
      ],
      "stateMutability": "view",
      "type": "function"
    },
    {
      "inputs": [
        {
          "internalType": "uint256",
          "name": "amount",
          "type": "uint256"
        }
      ],
      "name": "buyToken",
      "outputs": [],
      "stateMutability": "nonpayable",
      "type": "function"
    },
    {
      "inputs": [],
      "name": "buyTokenWithEth",
      "outputs": [],
      "stateMutability": "payable",
      "type": "function"
    },
    {
      "inputs": [
        {
          "internalType": "uint256",
          "name": "amount",
          "type": "uint256"
        }
      ],
      "name": "buyTokenWithLockIn",
      "outputs": [],
      "stateMutability": "nonpayable",
      "type": "function"
    },
    {
      "inputs": [],
      "name": "buyTokenWithLockInWithEth",
      "outputs": [],
      "stateMutability": "payable",
      "type": "function"
    },
    {
      "inputs": [],
      "name": "checkAcceptTokenBalance",
      "outputs": [
        {
          "internalType": "uint256",
          "name": "",
          "type": "uint256"
        }
      ],
      "stateMutability": "view",
      "type": "function"
    },
    {
      "inputs": [],
      "name": "checkBalance",
      "outputs": [
        {
          "internalType": "uint256",
          "name": "",
          "type": "uint256"
        }
      ],
      "stateMutability": "view",
      "type": "function"
    },
    {
      "inputs": [],
      "name": "cliff",
      "outputs": [
        {
          "internalType": "uint256",
          "name": "",
          "type": "uint256"
        }
      ],
      "stateMutability": "view",
      "type": "function"
    },
    {
      "inputs": [],
      "name": "currentSale",
      "outputs": [
        {
          "internalType": "uint8",
          "name": "",
          "type": "uint8"
        }
      ],
      "stateMutability": "view",
      "type": "function"
    },
    {
      "inputs": [
        {
          "internalType": "address",
          "name": "",
          "type": "address"
        }
      ],
      "name": "depositAmount",
      "outputs": [
        {
          "internalType": "uint256",
          "name": "",
          "type": "uint256"
        }
      ],
      "stateMutability": "view",
      "type": "function"
    },
    {
      "inputs": [],
      "name": "depositDeadline",
      "outputs": [
        {
          "internalType": "uint256",
          "name": "",
          "type": "uint256"
        }
      ],
      "stateMutability": "view",
      "type": "function"
    },
    {
      "inputs": [],
      "name": "endSale",
      "outputs": [
        {
          "internalType": "bool",
          "name": "",
          "type": "bool"
        }
      ],
      "stateMutability": "nonpayable",
      "type": "function"
    },
    {
      "inputs": [
        {
          "internalType": "uint256",
          "name": "endTime",
          "type": "uint256"
        }
      ],
      "name": "extendSale",
      "outputs": [
        {
          "internalType": "bool",
          "name": "",
          "type": "bool"
        }
      ],
      "stateMutability": "nonpayable",
      "type": "function"
    },
    {
      "inputs": [],
      "name": "fundRaisedViaEth",
      "outputs": [
        {
          "internalType": "uint256",
          "name": "",
          "type": "uint256"
        }
      ],
      "stateMutability": "view",
      "type": "function"
    },
    {
      "inputs": [],
      "name": "fundRaisedViaToken",
      "outputs": [
        {
          "internalType": "uint256",
          "name": "",
          "type": "uint256"
        }
      ],
      "stateMutability": "view",
      "type": "function"
    },
    {
      "inputs": [
        {
          "internalType": "address",
          "name": "",
          "type": "address"
        }
      ],
      "name": "fundingByAcccount",
      "outputs": [
        {
          "internalType": "uint256",
          "name": "",
          "type": "uint256"
        }
      ],
      "stateMutability": "view",
      "type": "function"
    },
    {
      "inputs": [
        {
          "internalType": "address",
          "name": "userAddress",
          "type": "address"
        }
      ],
      "name": "getCurrentUnlockedBalance",
      "outputs": [
        {
          "internalType": "uint256",
          "name": "",
          "type": "uint256"
        }
      ],
      "stateMutability": "view",
      "type": "function"
    },
    {
      "inputs": [
        {
          "internalType": "address",
          "name": "userAddress",
          "type": "address"
        }
      ],
      "name": "getNetWithdrawableBalance",
      "outputs": [
        {
          "internalType": "uint256",
          "name": "",
          "type": "uint256"
        }
      ],
      "stateMutability": "view",
      "type": "function"
    },
    {
      "inputs": [
        {
          "internalType": "uint8",
          "name": "rate",
          "type": "uint8"
        },
        {
          "internalType": "uint256",
          "name": "startTime",
          "type": "uint256"
        },
        {
          "internalType": "uint256",
          "name": "endTime",
          "type": "uint256"
        },
        {
          "internalType": "uint256",
          "name": "minAmount",
          "type": "uint256"
        },
        {
          "internalType": "uint256",
          "name": "maxAmount",
          "type": "uint256"
        },
        {
          "internalType": "uint256",
          "name": "fundingTarget",
          "type": "uint256"
        },
        {
          "internalType": "bool",
          "name": "lockin",
          "type": "bool"
        }
      ],
      "name": "initiateSale",
      "outputs": [],
      "stateMutability": "nonpayable",
      "type": "function"
    },
    {
      "inputs": [],
      "name": "isSaleLive",
      "outputs": [
        {
          "internalType": "bool",
          "name": "",
          "type": "bool"
        }
      ],
      "stateMutability": "view",
      "type": "function"
    },
    {
      "inputs": [],
      "name": "owner",
      "outputs": [
        {
          "internalType": "address",
          "name": "",
          "type": "address"
        }
      ],
      "stateMutability": "view",
      "type": "function"
    },
    {
      "inputs": [],
      "name": "renounceOwnership",
      "outputs": [],
      "stateMutability": "nonpayable",
      "type": "function"
    },
    {
      "inputs": [
        {
          "internalType": "uint256",
          "name": "",
          "type": "uint256"
        }
      ],
      "name": "saleInfo",
      "outputs": [
        {
          "internalType": "bool",
          "name": "lockIn",
          "type": "bool"
        },
        {
          "internalType": "uint8",
          "name": "icoRate",
          "type": "uint8"
        },
        {
          "internalType": "uint256",
          "name": "startTime",
          "type": "uint256"
        },
        {
          "internalType": "uint256",
          "name": "endTime",
          "type": "uint256"
        },
        {
          "internalType": "uint256",
          "name": "minAmount",
          "type": "uint256"
        },
        {
          "internalType": "uint256",
          "name": "maxAmount",
          "type": "uint256"
        },
        {
          "internalType": "uint256",
          "name": "fundingTarget",
          "type": "uint256"
        }
      ],
      "stateMutability": "view",
      "type": "function"
    },
    {
      "inputs": [],
      "name": "saleToken",
      "outputs": [
        {
          "internalType": "contract IERC20",
          "name": "",
          "type": "address"
        }
      ],
      "stateMutability": "view",
      "type": "function"
    },
    {
      "inputs": [],
      "name": "startSale",
      "outputs": [
        {
          "internalType": "bool",
          "name": "",
          "type": "bool"
        }
      ],
      "stateMutability": "nonpayable",
      "type": "function"
    },
    {
      "inputs": [
        {
          "internalType": "uint256",
          "name": "amount",
          "type": "uint256"
        }
      ],
      "name": "tokenReceivedAsPerRate",
      "outputs": [
        {
          "internalType": "uint256",
          "name": "",
          "type": "uint256"
        }
      ],
      "stateMutability": "view",
      "type": "function"
    },
    {
      "inputs": [
        {
          "internalType": "uint256",
          "name": "",
          "type": "uint256"
        }
      ],
      "name": "totalFunding",
      "outputs": [
        {
          "internalType": "uint256",
          "name": "",
          "type": "uint256"
        }
      ],
      "stateMutability": "view",
      "type": "function"
    },
    {
      "inputs": [],
      "name": "totalLockedTokens",
      "outputs": [
        {
          "internalType": "uint256",
          "name": "",
          "type": "uint256"
        }
      ],
      "stateMutability": "view",
      "type": "function"
    },
    {
      "inputs": [],
      "name": "totalTokenRelease",
      "outputs": [
        {
          "internalType": "uint256",
          "name": "",
          "type": "uint256"
        }
      ],
      "stateMutability": "view",
      "type": "function"
    },
    {
      "inputs": [],
      "name": "totalUniqueAddress",
      "outputs": [
        {
          "internalType": "uint256",
          "name": "",
          "type": "uint256"
        }
      ],
      "stateMutability": "view",
      "type": "function"
    },
    {
      "inputs": [
        {
          "internalType": "address",
          "name": "",
          "type": "address"
        }
      ],
      "name": "totalWithdrawnBalance",
      "outputs": [
        {
          "internalType": "uint256",
          "name": "",
          "type": "uint256"
        }
      ],
      "stateMutability": "view",
      "type": "function"
    },
    {
      "inputs": [
        {
          "internalType": "address",
          "name": "newOwner",
          "type": "address"
        }
      ],
      "name": "transferOwnership",
      "outputs": [],
      "stateMutability": "nonpayable",
      "type": "function"
    },
    {
      "inputs": [],
      "name": "unlockFrequency",
      "outputs": [
        {
          "internalType": "uint256",
          "name": "",
          "type": "uint256"
        }
      ],
      "stateMutability": "view",
      "type": "function"
    },
    {
      "inputs": [],
      "name": "unlockPercent",
      "outputs": [
        {
          "internalType": "uint256",
          "name": "",
          "type": "uint256"
        }
      ],
      "stateMutability": "view",
      "type": "function"
    },
    {
      "inputs": [],
      "name": "unlockPercentAtCliff",
      "outputs": [
        {
          "internalType": "uint256",
          "name": "",
          "type": "uint256"
        }
      ],
      "stateMutability": "view",
      "type": "function"
    },
    {
      "inputs": [
        {
          "internalType": "contract IERC20",
          "name": "_tokenAddress",
          "type": "address"
        }
      ],
      "name": "updateAcceptToken",
      "outputs": [],
      "stateMutability": "nonpayable",
      "type": "function"
    },
    {
      "inputs": [
        {
          "internalType": "uint256",
          "name": "time",
          "type": "uint256"
        }
      ],
      "name": "updateLockInDeadLine",
      "outputs": [],
      "stateMutability": "nonpayable",
      "type": "function"
    },
    {
      "inputs": [
        {
          "internalType": "uint8",
          "name": "rate",
          "type": "uint8"
        }
      ],
      "name": "updateRate",
      "outputs": [
        {
          "internalType": "bool",
          "name": "",
          "type": "bool"
        }
      ],
      "stateMutability": "nonpayable",
      "type": "function"
    },
    {
      "inputs": [
        {
          "internalType": "contract IERC20",
          "name": "_tokenAddress",
          "type": "address"
        }
      ],
      "name": "updateSaleToken",
      "outputs": [],
      "stateMutability": "nonpayable",
      "type": "function"
    },
    {
      "inputs": [],
      "name": "wallet",
      "outputs": [
        {
          "internalType": "address payable",
          "name": "",
          "type": "address"
        }
      ],
      "stateMutability": "view",
      "type": "function"
    },
    {
      "inputs": [
        {
          "internalType": "uint256",
          "name": "userRequestedWithdrawAmount",
          "type": "uint256"
        }
      ],
      "name": "withdraw",
      "outputs": [],
      "stateMutability": "nonpayable",
      "type": "function"
    },
    {
      "inputs": [],
      "name": "withdrawEth",
      "outputs": [],
      "stateMutability": "nonpayable",
      "type": "function"
    },
    {
      "stateMutability": "payable",
      "type": "receive"
    }
  ],
  "bytecode": "0x60806040526000600460146101000a81548160ff021916908360ff1602179055503480156200002d57600080fd5b506040516200582138038062005821833981810160405281019062000053919062000515565b62000073620000676200035f60201b60201c565b6200036760201b60201c565b60018081905550600073ffffffffffffffffffffffffffffffffffffffff168873ffffffffffffffffffffffffffffffffffffffff1614158015620000e55750600073ffffffffffffffffffffffffffffffffffffffff168673ffffffffffffffffffffffffffffffffffffffff1614155b80156200011f5750600073ffffffffffffffffffffffffffffffffffffffff168773ffffffffffffffffffffffffffffffffffffffff1614155b62000161576040517f08c379a0000000000000000000000000000000000000000000000000000000008152600401620001589062000665565b60405180910390fd5b8573ffffffffffffffffffffffffffffffffffffffff168773ffffffffffffffffffffffffffffffffffffffff1603620001d2576040517f08c379a0000000000000000000000000000000000000000000000000000000008152600401620001c990620006fd565b60405180910390fd5b84421062000217576040517f08c379a00000000000000000000000000000000000000000000000000000000081526004016200020e9062000795565b60405180910390fd5b60008311801562000229575060648311155b6200026b576040517f08c379a000000000000000000000000000000000000000000000000000000000815260040162000262906200082d565b60405180910390fd5b87600460006101000a81548173ffffffffffffffffffffffffffffffffffffffff021916908373ffffffffffffffffffffffffffffffffffffffff16021790555086600360006101000a81548173ffffffffffffffffffffffffffffffffffffffff021916908373ffffffffffffffffffffffffffffffffffffffff16021790555085600260006101000a81548173ffffffffffffffffffffffffffffffffffffffff021916908373ffffffffffffffffffffffffffffffffffffffff16021790555084600781905550836008819055508260098190555081600a8190555080600b8190555050505050505050506200084f565b600033905090565b60008060009054906101000a900473ffffffffffffffffffffffffffffffffffffffff169050816000806101000a81548173ffffffffffffffffffffffffffffffffffffffff021916908373ffffffffffffffffffffffffffffffffffffffff1602179055508173ffffffffffffffffffffffffffffffffffffffff168173ffffffffffffffffffffffffffffffffffffffff167f8be0079c531659141344cd1fd0a4f28419497f9722a3daafe3b4186f6b6457e060405160405180910390a35050565b600080fd5b600073ffffffffffffffffffffffffffffffffffffffff82169050919050565b60006200045d8262000430565b9050919050565b6200046f8162000450565b81146200047b57600080fd5b50565b6000815190506200048f8162000464565b92915050565b6000620004a28262000450565b9050919050565b620004b48162000495565b8114620004c057600080fd5b50565b600081519050620004d481620004a9565b92915050565b6000819050919050565b620004ef81620004da565b8114620004fb57600080fd5b50565b6000815190506200050f81620004e4565b92915050565b600080600080600080600080610100898b0312156200053957620005386200042b565b5b6000620005498b828c016200047e565b98505060206200055c8b828c01620004c3565b97505060406200056f8b828c01620004c3565b9650506060620005828b828c01620004fe565b9550506080620005958b828c01620004fe565b94505060a0620005a88b828c01620004fe565b93505060c0620005bb8b828c01620004fe565b92505060e0620005ce8b828c01620004fe565b9150509295985092959890939650565b600082825260208201905092915050565b7f57616c6c657420616464726573732063616e2774206265207a65726f2061646460008201527f7265737321000000000000000000000000000000000000000000000000000000602082015250565b60006200064d602583620005de565b91506200065a82620005ef565b604082019050919050565b6000602082019050818103600083015262000680816200063e565b9050919050565b7f53616c6520616e642041636365707420746f6b656e2063616e2774206265207460008201527f68652073616d6521000000000000000000000000000000000000000000000000602082015250565b6000620006e5602883620005de565b9150620006f28262000687565b604082019050919050565b600060208201905081810360008301526200071881620006d6565b9050919050565b7f4465706f73697420446561646c696e652073686f756c6420626520677265617460008201527f6f72207468616e2063757272656e742074696d65000000000000000000000000602082015250565b60006200077d603483620005de565b91506200078a826200071f565b604082019050919050565b60006020820190508181036000830152620007b0816200076e565b9050919050565b7f56616c7565732063616e2774206265207a65726f20616e642050657263656e7460008201527f2076616c7565732063616e2774206265206d6f7265207468616e203130300000602082015250565b600062000815603e83620005de565b91506200082282620007b7565b604082019050919050565b60006020820190508181036000830152620008488162000806565b9050919050565b614fc2806200085f6000396000f3fe6080604052600436106102555760003560e01c8063715018a611610139578063a3c3898e116100b6578063f2fde38b1161007a578063f2fde38b14610894578063f5c476f9146108bd578063f71143ca146108e8578063fc49cace14610913578063fd87b6cd14610950578063ff5dc6871461098d5761025c565b8063a3c3898e146107ab578063b66a0e5d146107d6578063c71daccb14610801578063ce5725bf1461082c578063e985e367146108695761025c565b80638d7c941e116100fd5780638d7c941e146106ea5780638da5cb5b146107155780639368a6e014610740578063a05d03fd14610769578063a0ef91df146107945761025c565b8063715018a614610619578063756688c01461063057806382f211831461065b57806384ca06af146106845780638a9ffc69146106c15761025c565b80632d296bf1116101d257806350f62da71161019657806350f62da714610514578063521eb273146105515780635510f8041461057c5780635caa6bdc146105a75780635d89d2c6146105b157806361603d89146105ee5761025c565b80632d296bf1146104505780632e1a7d4d14610479578063352b9eb5146104a25780633788a387146104df578063380d831b146104e95761025c565b8063164a7ec911610219578063164a7ec9146103575780631f1886e41461038257806327aa3616146103bf5780632804bee6146103fc5780632a8755ef146104275761025c565b806301f65d0d1461026a57806302eb4b881461029557806304787e65146102d8578063101d1f3b1461030157806313d033c01461032c5761025c565b3661025c57005b34801561026857600080fd5b005b34801561027657600080fd5b5061027f6109b8565b60405161028c9190613a0d565b60405180910390f35b3480156102a157600080fd5b506102bc60048036038101906102b79190613a59565b6109be565b6040516102cf9796959493929190613abd565b60405180910390f35b3480156102e457600080fd5b506102ff60048036038101906102fa9190613a59565b610a2a565b005b34801561030d57600080fd5b50610316611288565b6040516103239190613a0d565b60405180910390f35b34801561033857600080fd5b5061034161128e565b60405161034e9190613a0d565b60405180910390f35b34801561036357600080fd5b5061036c611294565b6040516103799190613a0d565b60405180910390f35b34801561038e57600080fd5b506103a960048036038101906103a49190613a59565b61129a565b6040516103b69190613b2c565b60405180910390f35b3480156103cb57600080fd5b506103e660048036038101906103e19190613a59565b611439565b6040516103f39190613a0d565b60405180910390f35b34801561040857600080fd5b50610411611451565b60405161041e9190613a0d565b60405180910390f35b34801561043357600080fd5b5061044e60048036038101906104499190613bb7565b611457565b005b34801561045c57600080fd5b5061047760048036038101906104729190613a59565b61156c565b005b34801561048557600080fd5b506104a0600480360381019061049b9190613a59565b611cb3565b005b3480156104ae57600080fd5b506104c960048036038101906104c49190613c10565b611efe565b6040516104d69190613a0d565b60405180910390f35b6104e7611ff8565b005b3480156104f557600080fd5b506104fe612557565b60405161050b9190613b2c565b60405180910390f35b34801561052057600080fd5b5061053b60048036038101906105369190613c10565b612583565b6040516105489190613a0d565b60405180910390f35b34801561055d57600080fd5b5061056661259b565b6040516105739190613c5e565b60405180910390f35b34801561058857600080fd5b506105916125c1565b60405161059e9190613cd8565b60405180910390f35b6105af6125e7565b005b3480156105bd57600080fd5b506105d860048036038101906105d39190613c10565b612c5d565b6040516105e59190613a0d565b60405180910390f35b3480156105fa57600080fd5b50610603612c75565b6040516106109190613a0d565b60405180910390f35b34801561062557600080fd5b5061062e612c7b565b005b34801561063c57600080fd5b50610645612c8f565b6040516106529190613a0d565b60405180910390f35b34801561066757600080fd5b50610682600480360381019061067d9190613a59565b612c95565b005b34801561069057600080fd5b506106ab60048036038101906106a69190613d1f565b612d20565b6040516106b89190613b2c565b60405180910390f35b3480156106cd57600080fd5b506106e860048036038101906106e39190613d78565b612ed7565b005b3480156106f657600080fd5b506106ff61324b565b60405161070c9190613a0d565b60405180910390f35b34801561072157600080fd5b5061072a6132ee565b6040516107379190613e29565b60405180910390f35b34801561074c57600080fd5b5061076760048036038101906107629190613bb7565b613317565b005b34801561077557600080fd5b5061077e61342c565b60405161078b9190613e44565b60405180910390f35b3480156107a057600080fd5b506107a961343f565b005b3480156107b757600080fd5b506107c06134b2565b6040516107cd9190613a0d565b60405180910390f35b3480156107e257600080fd5b506107eb6134b8565b6040516107f89190613b2c565b60405180910390f35b34801561080d57600080fd5b506108166135a1565b6040516108239190613a0d565b60405180910390f35b34801561083857600080fd5b50610853600480360381019061084e9190613c10565b613644565b6040516108609190613a0d565b60405180910390f35b34801561087557600080fd5b5061087e6136ab565b60405161088b9190613cd8565b60405180910390f35b3480156108a057600080fd5b506108bb60048036038101906108b69190613c10565b6136d1565b005b3480156108c957600080fd5b506108d2613754565b6040516108df9190613a0d565b60405180910390f35b3480156108f457600080fd5b506108fd61375a565b60405161090a9190613b2c565b60405180910390f35b34801561091f57600080fd5b5061093a60048036038101906109359190613a59565b61376d565b6040516109479190613a0d565b60405180910390f35b34801561095c57600080fd5b5061097760048036038101906109729190613c10565b6137c9565b6040516109849190613a0d565b60405180910390f35b34801561099957600080fd5b506109a26137e1565b6040516109af9190613a0d565b60405180910390f35b600e5481565b600f81815481106109ce57600080fd5b90600052602060002090600602016000915090508060000160009054906101000a900460ff16908060000160019054906101000a900460ff16908060010154908060020154908060030154908060040154908060050154905087565b600460159054906101000a900460ff168015610a7c575042600f600460149054906101000a900460ff1660ff1681548110610a6857610a67613e5f565b5b906000526020600020906006020160020154115b610abb576040517f08c379a0000000000000000000000000000000000000000000000000000000008152600401610ab290613eeb565b60405180910390fd5b80600f600460149054906101000a900460ff1660ff1681548110610ae257610ae1613e5f565b5b9060005260206000209060060201600301548110158015610b3a5750600f600460149054906101000a900460ff1660ff1681548110610b2457610b23613e5f565b5b9060005260206000209060060201600401548111155b610b79576040517f08c379a0000000000000000000000000000000000000000000000000000000008152600401610b7090613f7d565b60405180910390fd5b818060106000600460149054906101000a900460ff1660ff16815260200190815260200160002054610bab9190613fcc565b600f600460149054906101000a900460ff1660ff1681548110610bd157610bd0613e5f565b5b90600052602060002090600602016005015411610c23576040517f08c379a0000000000000000000000000000000000000000000000000000000008152600401610c1a90614072565b60405180910390fd5b8280600360009054906101000a900473ffffffffffffffffffffffffffffffffffffffff1673ffffffffffffffffffffffffffffffffffffffff1663dd62ed3e33306040518363ffffffff1660e01b8152600401610c82929190614092565b602060405180830381865afa158015610c9f573d6000803e3d6000fd5b505050506040513d601f19601f82011682018060405250810190610cc391906140d0565b1015610d04576040517f08c379a0000000000000000000000000000000000000000000000000000000008152600401610cfb90614149565b60405180910390fd5b610d0c6137e7565b600f600460149054906101000a900460ff1660ff1681548110610d3257610d31613e5f565b5b906000526020600020906006020160000160009054906101000a900460ff16610d90576040517f08c379a0000000000000000000000000000000000000000000000000000000008152600401610d87906141db565b60405180910390fd5b6007544210610dd4576040517f08c379a0000000000000000000000000000000000000000000000000000000008152600401610dcb90614247565b60405180910390fd5b600084600f600460149054906101000a900460ff1660ff1681548110610dfd57610dfc613e5f565b5b906000526020600020906006020160000160019054906101000a900460ff1660ff16610e299190614267565b90503373ffffffffffffffffffffffffffffffffffffffff167fcd60aa75dea3072fbc07ae6d7d856b5dc5f4eee88854f5b4abf7b680ef8bc50f8683604051610e739291906142a9565b60405180910390a23073ffffffffffffffffffffffffffffffffffffffff163373ffffffffffffffffffffffffffffffffffffffff167f5548c837ab068cf56a2c2479df0882a4922fd203edb7517321831d95078c5f6287604051610ed89190613a0d565b60405180910390a38460106000600460149054906101000a900460ff1660ff1681526020019081526020016000206000828254610f159190613fcc565b9250508190555084600e6000828254610f2e9190613fcc565b925050819055506000601160003373ffffffffffffffffffffffffffffffffffffffff1673ffffffffffffffffffffffffffffffffffffffff1681526020019081526020016000205403610f955760066000815480929190610f8f906142d2565b91905055505b84601160003373ffffffffffffffffffffffffffffffffffffffff1673ffffffffffffffffffffffffffffffffffffffff1681526020019081526020016000206000828254610fe49190613fcc565b925050819055508060056000828254610ffd9190613fcc565b9250508190555084601260003373ffffffffffffffffffffffffffffffffffffffff1673ffffffffffffffffffffffffffffffffffffffff16815260200190815260200160002060008282546110539190613fcc565b9250508190555084600c600082825461106c9190613fcc565b92505081905550600360009054906101000a900473ffffffffffffffffffffffffffffffffffffffff1673ffffffffffffffffffffffffffffffffffffffff166323b872dd33600460009054906101000a900473ffffffffffffffffffffffffffffffffffffffff16886040518463ffffffff1660e01b81526004016110f49392919061433b565b6020604051808303816000875af1158015611113573d6000803e3d6000fd5b505050506040513d601f19601f820116820180604052508101906111379190614387565b611176576040517f08c379a000000000000000000000000000000000000000000000000000000000815260040161116d90614400565b60405180910390fd5b600260009054906101000a900473ffffffffffffffffffffffffffffffffffffffff1673ffffffffffffffffffffffffffffffffffffffff166323b872dd600460009054906101000a900473ffffffffffffffffffffffffffffffffffffffff1630886040518463ffffffff1660e01b81526004016111f793929190614420565b6020604051808303816000875af1158015611216573d6000803e3d6000fd5b505050506040513d601f19601f8201168201806040525081019061123a9190614387565b611279576040517f08c379a000000000000000000000000000000000000000000000000000000000815260040161127090614400565b60405180910390fd5b50611282613836565b50505050565b600a5481565b60085481565b600d5481565b60006112a461383f565b600460159054906101000a900460ff1680156112f6575042600f600460149054906101000a900460ff1660ff16815481106112e2576112e1613e5f565b5b906000526020600020906006020160020154115b611335576040517f08c379a000000000000000000000000000000000000000000000000000000000815260040161132c90613eeb565b60405180910390fd5b428211611377576040517f08c379a000000000000000000000000000000000000000000000000000000000815260040161136e906144c9565b60405180910390fd5b81600f600460149054906101000a900460ff1660ff168154811061139e5761139d613e5f565b5b906000526020600020906006020160020181905550600460149054906101000a900460ff1660ff167f4442845bda9e1630c3b84cbdfc8b51bbbc84a64f2b0242c3ab2ac512f1b1f391600f600460149054906101000a900460ff1660ff168154811061140d5761140c613e5f565b5b90600052602060002090600602016040516114289190614678565b60405180910390a260019050919050565b60106020528060005260406000206000915090505481565b60095481565b61145f61383f565b600073ffffffffffffffffffffffffffffffffffffffff168173ffffffffffffffffffffffffffffffffffffffff160361149857600080fd5b600360009054906101000a900473ffffffffffffffffffffffffffffffffffffffff1673ffffffffffffffffffffffffffffffffffffffff168173ffffffffffffffffffffffffffffffffffffffff1603611528576040517f08c379a000000000000000000000000000000000000000000000000000000000815260040161151f90614705565b60405180910390fd5b80600260006101000a81548173ffffffffffffffffffffffffffffffffffffffff021916908373ffffffffffffffffffffffffffffffffffffffff16021790555050565b600460159054906101000a900460ff1680156115be575042600f600460149054906101000a900460ff1660ff16815481106115aa576115a9613e5f565b5b906000526020600020906006020160020154115b6115fd576040517f08c379a00000000000000000000000000000000000000000000000000000000081526004016115f490613eeb565b60405180910390fd5b80600f600460149054906101000a900460ff1660ff168154811061162457611623613e5f565b5b906000526020600020906006020160030154811015801561167c5750600f600460149054906101000a900460ff1660ff168154811061166657611665613e5f565b5b9060005260206000209060060201600401548111155b6116bb576040517f08c379a00000000000000000000000000000000000000000000000000000000081526004016116b290613f7d565b60405180910390fd5b818060106000600460149054906101000a900460ff1660ff168152602001908152602001600020546116ed9190613fcc565b600f600460149054906101000a900460ff1660ff168154811061171357611712613e5f565b5b90600052602060002090600602016005015411611765576040517f08c379a000000000000000000000000000000000000000000000000000000000815260040161175c90614072565b60405180910390fd5b8280600360009054906101000a900473ffffffffffffffffffffffffffffffffffffffff1673ffffffffffffffffffffffffffffffffffffffff1663dd62ed3e33306040518363ffffffff1660e01b81526004016117c4929190614092565b602060405180830381865afa1580156117e1573d6000803e3d6000fd5b505050506040513d601f19601f8201168201806040525081019061180591906140d0565b1015611846576040517f08c379a000000000000000000000000000000000000000000000000000000000815260040161183d90614149565b60405180910390fd5b61184e6137e7565b600f600460149054906101000a900460ff1660ff168154811061187457611873613e5f565b5b906000526020600020906006020160000160009054906101000a900460ff16156118d3576040517f08c379a00000000000000000000000000000000000000000000000000000000081526004016118ca90614797565b60405180910390fd5b600084600f600460149054906101000a900460ff1660ff16815481106118fc576118fb613e5f565b5b906000526020600020906006020160000160019054906101000a900460ff1660ff166119289190614267565b90503373ffffffffffffffffffffffffffffffffffffffff167fcd60aa75dea3072fbc07ae6d7d856b5dc5f4eee88854f5b4abf7b680ef8bc50f86836040516119729291906142a9565b60405180910390a28460106000600460149054906101000a900460ff1660ff16815260200190815260200160002060008282546119af9190613fcc565b9250508190555084600e60008282546119c89190613fcc565b925050819055506000601160003373ffffffffffffffffffffffffffffffffffffffff1673ffffffffffffffffffffffffffffffffffffffff1681526020019081526020016000205403611a2f5760066000815480929190611a29906142d2565b91905055505b84601160003373ffffffffffffffffffffffffffffffffffffffff1673ffffffffffffffffffffffffffffffffffffffff1681526020019081526020016000206000828254611a7e9190613fcc565b925050819055508060056000828254611a979190613fcc565b92505081905550600360009054906101000a900473ffffffffffffffffffffffffffffffffffffffff1673ffffffffffffffffffffffffffffffffffffffff166323b872dd33600460009054906101000a900473ffffffffffffffffffffffffffffffffffffffff16886040518463ffffffff1660e01b8152600401611b1f9392919061433b565b6020604051808303816000875af1158015611b3e573d6000803e3d6000fd5b505050506040513d601f19601f82011682018060405250810190611b629190614387565b611ba1576040517f08c379a0000000000000000000000000000000000000000000000000000000008152600401611b9890614400565b60405180910390fd5b600260009054906101000a900473ffffffffffffffffffffffffffffffffffffffff1673ffffffffffffffffffffffffffffffffffffffff166323b872dd600460009054906101000a900473ffffffffffffffffffffffffffffffffffffffff1633846040518463ffffffff1660e01b8152600401611c2293929190614420565b6020604051808303816000875af1158015611c41573d6000803e3d6000fd5b505050506040513d601f19601f82011682018060405250810190611c659190614387565b611ca4576040517f08c379a0000000000000000000000000000000000000000000000000000000008152600401611c9b90614400565b60405180910390fd5b50611cad613836565b50505050565b6007544211611cf7576040517f08c379a0000000000000000000000000000000000000000000000000000000008152600401611cee90614803565b60405180910390fd5b6000611d0233613644565b905081811015611d47576040517f08c379a0000000000000000000000000000000000000000000000000000000008152600401611d3e906148e1565b60405180910390fd5b3373ffffffffffffffffffffffffffffffffffffffff163073ffffffffffffffffffffffffffffffffffffffff167f9b1bfa7fa9ee420a16e124f794c35ac9f90472acc99140eb2f6447c714cad8eb84604051611da49190613a0d565b60405180910390a381601360003373ffffffffffffffffffffffffffffffffffffffff1673ffffffffffffffffffffffffffffffffffffffff1681526020019081526020016000206000828254611dfb9190613fcc565b9250508190555081600c6000828254611e149190614901565b92505081905550600260009054906101000a900473ffffffffffffffffffffffffffffffffffffffff1673ffffffffffffffffffffffffffffffffffffffff1663a9059cbb33846040518363ffffffff1660e01b8152600401611e78929190614935565b6020604051808303816000875af1158015611e97573d6000803e3d6000fd5b505050506040513d601f19601f82011682018060405250810190611ebb9190614387565b611efa576040517f08c379a0000000000000000000000000000000000000000000000000000000008152600401611ef190614400565b60405180910390fd5b5050565b600080600090506000601260008573ffffffffffffffffffffffffffffffffffffffff1673ffffffffffffffffffffffffffffffffffffffff1681526020019081526020016000205490506000600854600754611f5b9190613fcc565b905080421015611f715760009350505050611ff3565b6000600a541115611fb657600a54600b548242611f8e9190614901565b611f989190614267565b611fa2919061498d565b600954611faf9190613fcc565b9250611fc7565b6000600a5403611fc65760095492505b5b6064831115611fd557606492505b60648284611fe39190614267565b611fed919061498d565b93505050505b919050565b600460159054906101000a900460ff16801561204a575042600f600460149054906101000a900460ff1660ff168154811061203657612035613e5f565b5b906000526020600020906006020160020154115b612089576040517f08c379a000000000000000000000000000000000000000000000000000000000815260040161208090613eeb565b60405180910390fd5b34600f600460149054906101000a900460ff1660ff16815481106120b0576120af613e5f565b5b90600052602060002090600602016003015481101580156121085750600f600460149054906101000a900460ff1660ff16815481106120f2576120f1613e5f565b5b9060005260206000209060060201600401548111155b612147576040517f08c379a000000000000000000000000000000000000000000000000000000000815260040161213e90613f7d565b60405180910390fd5b348060106000600460149054906101000a900460ff1660ff168152602001908152602001600020546121799190613fcc565b600f600460149054906101000a900460ff1660ff168154811061219f5761219e613e5f565b5b906000526020600020906006020160050154116121f1576040517f08c379a00000000000000000000000000000000000000000000000000000000081526004016121e890614072565b60405180910390fd5b600f600460149054906101000a900460ff1660ff168154811061221757612216613e5f565b5b906000526020600020906006020160000160009054906101000a900460ff1615612276576040517f08c379a000000000000000000000000000000000000000000000000000000000815260040161226d90614797565b60405180910390fd5b6000349050600081600f600460149054906101000a900460ff1660ff16815481106122a4576122a3613e5f565b5b906000526020600020906006020160000160019054906101000a900460ff1660ff166122d09190614267565b90503373ffffffffffffffffffffffffffffffffffffffff167fcd60aa75dea3072fbc07ae6d7d856b5dc5f4eee88854f5b4abf7b680ef8bc50f838360405161231a9291906142a9565b60405180910390a28160106000600460149054906101000a900460ff1660ff16815260200190815260200160002060008282546123579190613fcc565b9250508190555081600d60008282546123709190613fcc565b925050819055506000601160003373ffffffffffffffffffffffffffffffffffffffff1673ffffffffffffffffffffffffffffffffffffffff16815260200190815260200160002054036123d757600660008154809291906123d1906142d2565b91905055505b81601160003373ffffffffffffffffffffffffffffffffffffffff1673ffffffffffffffffffffffffffffffffffffffff16815260200190815260200160002060008282546124269190613fcc565b92505081905550806005600082825461243f9190613fcc565b9250508190555061244e6138bd565b600260009054906101000a900473ffffffffffffffffffffffffffffffffffffffff1673ffffffffffffffffffffffffffffffffffffffff166323b872dd600460009054906101000a900473ffffffffffffffffffffffffffffffffffffffff1633846040518463ffffffff1660e01b81526004016124cf93929190614420565b6020604051808303816000875af11580156124ee573d6000803e3d6000fd5b505050506040513d601f19601f820116820180604052508101906125129190614387565b612551576040517f08c379a000000000000000000000000000000000000000000000000000000000815260040161254890614400565b60405180910390fd5b50505050565b600061256161383f565b6000600460156101000a81548160ff0219169083151502179055506001905090565b60126020528060005260406000206000915090505481565b600460009054906101000a900473ffffffffffffffffffffffffffffffffffffffff1681565b600360009054906101000a900473ffffffffffffffffffffffffffffffffffffffff1681565b600460159054906101000a900460ff168015612639575042600f600460149054906101000a900460ff1660ff168154811061262557612624613e5f565b5b906000526020600020906006020160020154115b612678576040517f08c379a000000000000000000000000000000000000000000000000000000000815260040161266f90613eeb565b60405180910390fd5b34600f600460149054906101000a900460ff1660ff168154811061269f5761269e613e5f565b5b90600052602060002090600602016003015481101580156126f75750600f600460149054906101000a900460ff1660ff16815481106126e1576126e0613e5f565b5b9060005260206000209060060201600401548111155b612736576040517f08c379a000000000000000000000000000000000000000000000000000000000815260040161272d90613f7d565b60405180910390fd5b348060106000600460149054906101000a900460ff1660ff168152602001908152602001600020546127689190613fcc565b600f600460149054906101000a900460ff1660ff168154811061278e5761278d613e5f565b5b906000526020600020906006020160050154116127e0576040517f08c379a00000000000000000000000000000000000000000000000000000000081526004016127d790614072565b60405180910390fd5b600f600460149054906101000a900460ff1660ff168154811061280657612805613e5f565b5b906000526020600020906006020160000160009054906101000a900460ff16612864576040517f08c379a000000000000000000000000000000000000000000000000000000000815260040161285b906141db565b60405180910390fd5b60075442106128a8576040517f08c379a000000000000000000000000000000000000000000000000000000000815260040161289f90614247565b60405180910390fd5b6000349050600081600f600460149054906101000a900460ff1660ff16815481106128d6576128d5613e5f565b5b906000526020600020906006020160000160019054906101000a900460ff1660ff166129029190614267565b90503373ffffffffffffffffffffffffffffffffffffffff167fcd60aa75dea3072fbc07ae6d7d856b5dc5f4eee88854f5b4abf7b680ef8bc50f838360405161294c9291906142a9565b60405180910390a23073ffffffffffffffffffffffffffffffffffffffff163373ffffffffffffffffffffffffffffffffffffffff167f5548c837ab068cf56a2c2479df0882a4922fd203edb7517321831d95078c5f62846040516129b19190613a0d565b60405180910390a38160106000600460149054906101000a900460ff1660ff16815260200190815260200160002060008282546129ee9190613fcc565b9250508190555081600d6000828254612a079190613fcc565b925050819055506000601160003373ffffffffffffffffffffffffffffffffffffffff1673ffffffffffffffffffffffffffffffffffffffff1681526020019081526020016000205403612a6e5760066000815480929190612a68906142d2565b91905055505b81601160003373ffffffffffffffffffffffffffffffffffffffff1673ffffffffffffffffffffffffffffffffffffffff1681526020019081526020016000206000828254612abd9190613fcc565b925050819055508060056000828254612ad69190613fcc565b9250508190555081601260003373ffffffffffffffffffffffffffffffffffffffff1673ffffffffffffffffffffffffffffffffffffffff1681526020019081526020016000206000828254612b2c9190613fcc565b9250508190555081600c6000828254612b459190613fcc565b92505081905550612b546138bd565b600260009054906101000a900473ffffffffffffffffffffffffffffffffffffffff1673ffffffffffffffffffffffffffffffffffffffff166323b872dd600460009054906101000a900473ffffffffffffffffffffffffffffffffffffffff1630856040518463ffffffff1660e01b8152600401612bd593929190614420565b6020604051808303816000875af1158015612bf4573d6000803e3d6000fd5b505050506040513d601f19601f82011682018060405250810190612c189190614387565b612c57576040517f08c379a0000000000000000000000000000000000000000000000000000000008152600401612c4e90614400565b60405180910390fd5b50505050565b60136020528060005260406000206000915090505481565b60075481565b612c8361383f565b612c8d6000613928565b565b600b5481565b612c9d61383f565b428111612cdf576040517f08c379a0000000000000000000000000000000000000000000000000000000008152600401612cd690614a30565b60405180910390fd5b7fd0144f0415758c7fc7b22877eeb3b7c1c57263bf15423c7fb180b39dd043559e81604051612d0e9190613a0d565b60405180910390a18060078190555050565b6000612d2a61383f565b600460159054906101000a900460ff168015612d7c575042600f600460149054906101000a900460ff1660ff1681548110612d6857612d67613e5f565b5b906000526020600020906006020160020154115b612dbb576040517f08c379a0000000000000000000000000000000000000000000000000000000008152600401612db290613eeb565b60405180910390fd5b60008260ff1611612e01576040517f08c379a0000000000000000000000000000000000000000000000000000000008152600401612df890614a9c565b60405180910390fd5b81600f600460149054906101000a900460ff1660ff1681548110612e2857612e27613e5f565b5b906000526020600020906006020160000160016101000a81548160ff021916908360ff160217905550600460149054906101000a900460ff1660ff167f4442845bda9e1630c3b84cbdfc8b51bbbc84a64f2b0242c3ab2ac512f1b1f391600f600460149054906101000a900460ff1660ff1681548110612eab57612eaa613e5f565b5b9060005260206000209060060201604051612ec69190614678565b60405180910390a260019050919050565b612edf61383f565b600460159054906101000a900460ff1615612f2f576040517f08c379a0000000000000000000000000000000000000000000000000000000008152600401612f2690614b08565b60405180910390fd5b428611612f71576040517f08c379a0000000000000000000000000000000000000000000000000000000008152600401612f6890614b9a565b60405180910390fd5b858511612fb3576040517f08c379a0000000000000000000000000000000000000000000000000000000008152600401612faa90614c2c565b60405180910390fd5b60008411612ff6576040517f08c379a0000000000000000000000000000000000000000000000000000000008152600401612fed90614c98565b60405180910390fd5b838311613038576040517f08c379a000000000000000000000000000000000000000000000000000000000815260040161302f90614d2a565b60405180910390fd5b60008760ff161161307e576040517f08c379a000000000000000000000000000000000000000000000000000000000815260040161307590614a9c565b60405180910390fd5b600082116130c1576040517f08c379a00000000000000000000000000000000000000000000000000000000081526004016130b890614d96565b60405180910390fd5b600f6040518060e0016040528083151581526020018960ff16815260200188815260200187815260200186815260200185815260200184815250908060018154018082558091505060019003906000526020600020906006020160009091909190915060008201518160000160006101000a81548160ff02191690831515021790555060208201518160000160016101000a81548160ff021916908360ff16021790555060408201518160010155606082015181600201556080820151816003015560a0820151816004015560c0820151816005015550506001600f805490506131ab9190614901565b600460146101000a81548160ff021916908360ff160217905550600460149054906101000a900460ff1660ff167fa616a9649196273423985d1f867c43436c26a7e13fc47d1ad2d67a8c332fe562600f600460149054906101000a900460ff1660ff168154811061321f5761321e613e5f565b5b906000526020600020906006020160405161323a9190614678565b60405180910390a250505050505050565b6000600360009054906101000a900473ffffffffffffffffffffffffffffffffffffffff1673ffffffffffffffffffffffffffffffffffffffff166370a08231336040518263ffffffff1660e01b81526004016132a89190613e29565b602060405180830381865afa1580156132c5573d6000803e3d6000fd5b505050506040513d601f19601f820116820180604052508101906132e991906140d0565b905090565b60008060009054906101000a900473ffffffffffffffffffffffffffffffffffffffff16905090565b61331f61383f565b600073ffffffffffffffffffffffffffffffffffffffff168173ffffffffffffffffffffffffffffffffffffffff160361335857600080fd5b600260009054906101000a900473ffffffffffffffffffffffffffffffffffffffff1673ffffffffffffffffffffffffffffffffffffffff168173ffffffffffffffffffffffffffffffffffffffff16036133e8576040517f08c379a00000000000000000000000000000000000000000000000000000000081526004016133df90614705565b60405180910390fd5b80600360006101000a81548173ffffffffffffffffffffffffffffffffffffffff021916908373ffffffffffffffffffffffffffffffffffffffff16021790555050565b600460149054906101000a900460ff1681565b61344761383f565b600460009054906101000a900473ffffffffffffffffffffffffffffffffffffffff1673ffffffffffffffffffffffffffffffffffffffff166108fc479081150290604051600060405180830381858888f193505050501580156134af573d6000803e3d6000fd5b50565b60055481565b60006134c261383f565b42600f600460149054906101000a900460ff1660ff16815481106134e9576134e8613e5f565b5b90600052602060002090600602016001015411158015613540575042600f600460149054906101000a900460ff1660ff168154811061352b5761352a613e5f565b5b90600052602060002090600602016002015410155b61357f576040517f08c379a000000000000000000000000000000000000000000000000000000000815260040161357690614e02565b60405180910390fd5b6001600460156101000a81548160ff0219169083151502179055506001905090565b6000600260009054906101000a900473ffffffffffffffffffffffffffffffffffffffff1673ffffffffffffffffffffffffffffffffffffffff166370a08231336040518263ffffffff1660e01b81526004016135fe9190613e29565b602060405180830381865afa15801561361b573d6000803e3d6000fd5b505050506040513d601f19601f8201168201806040525081019061363f91906140d0565b905090565b60008061365083611efe565b90506000601360008573ffffffffffffffffffffffffffffffffffffffff1673ffffffffffffffffffffffffffffffffffffffff168152602001908152602001600020548261369f9190614901565b90508092505050919050565b600260009054906101000a900473ffffffffffffffffffffffffffffffffffffffff1681565b6136d961383f565b600073ffffffffffffffffffffffffffffffffffffffff168173ffffffffffffffffffffffffffffffffffffffff1603613748576040517f08c379a000000000000000000000000000000000000000000000000000000000815260040161373f90614e94565b60405180910390fd5b61375181613928565b50565b600c5481565b600460159054906101000a900460ff1681565b600081600f600460149054906101000a900460ff1660ff168154811061379657613795613e5f565b5b906000526020600020906006020160000160019054906101000a900460ff1660ff166137c29190614267565b9050919050565b60116020528060005260406000206000915090505481565b60065481565b60026001540361382c576040517f08c379a000000000000000000000000000000000000000000000000000000000815260040161382390614f00565b60405180910390fd5b6002600181905550565b60018081905550565b6138476139ec565b73ffffffffffffffffffffffffffffffffffffffff166138656132ee565b73ffffffffffffffffffffffffffffffffffffffff16146138bb576040517f08c379a00000000000000000000000000000000000000000000000000000000081526004016138b290614f6c565b60405180910390fd5b565b600460009054906101000a900473ffffffffffffffffffffffffffffffffffffffff1673ffffffffffffffffffffffffffffffffffffffff166108fc349081150290604051600060405180830381858888f19350505050158015613925573d6000803e3d6000fd5b50565b60008060009054906101000a900473ffffffffffffffffffffffffffffffffffffffff169050816000806101000a81548173ffffffffffffffffffffffffffffffffffffffff021916908373ffffffffffffffffffffffffffffffffffffffff1602179055508173ffffffffffffffffffffffffffffffffffffffff168173ffffffffffffffffffffffffffffffffffffffff167f8be0079c531659141344cd1fd0a4f28419497f9722a3daafe3b4186f6b6457e060405160405180910390a35050565b600033905090565b6000819050919050565b613a07816139f4565b82525050565b6000602082019050613a2260008301846139fe565b92915050565b600080fd5b613a36816139f4565b8114613a4157600080fd5b50565b600081359050613a5381613a2d565b92915050565b600060208284031215613a6f57613a6e613a28565b5b6000613a7d84828501613a44565b91505092915050565b60008115159050919050565b613a9b81613a86565b82525050565b600060ff82169050919050565b613ab781613aa1565b82525050565b600060e082019050613ad2600083018a613a92565b613adf6020830189613aae565b613aec60408301886139fe565b613af960608301876139fe565b613b0660808301866139fe565b613b1360a08301856139fe565b613b2060c08301846139fe565b98975050505050505050565b6000602082019050613b416000830184613a92565b92915050565b600073ffffffffffffffffffffffffffffffffffffffff82169050919050565b6000613b7282613b47565b9050919050565b6000613b8482613b67565b9050919050565b613b9481613b79565b8114613b9f57600080fd5b50565b600081359050613bb181613b8b565b92915050565b600060208284031215613bcd57613bcc613a28565b5b6000613bdb84828501613ba2565b91505092915050565b613bed81613b67565b8114613bf857600080fd5b50565b600081359050613c0a81613be4565b92915050565b600060208284031215613c2657613c25613a28565b5b6000613c3484828501613bfb565b91505092915050565b6000613c4882613b47565b9050919050565b613c5881613c3d565b82525050565b6000602082019050613c736000830184613c4f565b92915050565b6000819050919050565b6000613c9e613c99613c9484613b47565b613c79565b613b47565b9050919050565b6000613cb082613c83565b9050919050565b6000613cc282613ca5565b9050919050565b613cd281613cb7565b82525050565b6000602082019050613ced6000830184613cc9565b92915050565b613cfc81613aa1565b8114613d0757600080fd5b50565b600081359050613d1981613cf3565b92915050565b600060208284031215613d3557613d34613a28565b5b6000613d4384828501613d0a565b91505092915050565b613d5581613a86565b8114613d6057600080fd5b50565b600081359050613d7281613d4c565b92915050565b600080600080600080600060e0888a031215613d9757613d96613a28565b5b6000613da58a828b01613d0a565b9750506020613db68a828b01613a44565b9650506040613dc78a828b01613a44565b9550506060613dd88a828b01613a44565b9450506080613de98a828b01613a44565b93505060a0613dfa8a828b01613a44565b92505060c0613e0b8a828b01613d63565b91505092959891949750929550565b613e2381613b67565b82525050565b6000602082019050613e3e6000830184613e1a565b92915050565b6000602082019050613e596000830184613aae565b92915050565b7f4e487b7100000000000000000000000000000000000000000000000000000000600052603260045260246000fd5b600082825260208201905092915050565b7f53616c65206973206e6f74206c697665206f7220656e64656421000000000000600082015250565b6000613ed5601a83613e8e565b9150613ee082613e9f565b602082019050919050565b60006020820190508181036000830152613f0481613ec8565b9050919050565b7f416d6f756e7420646f6573206e6f74206d656574206d696e20616e64206d617860008201527f2063726974657269612100000000000000000000000000000000000000000000602082015250565b6000613f67602a83613e8e565b9150613f7282613f0b565b604082019050919050565b60006020820190508181036000830152613f9681613f5a565b9050919050565b7f4e487b7100000000000000000000000000000000000000000000000000000000600052601160045260246000fd5b6000613fd7826139f4565b9150613fe2836139f4565b9250828201905080821115613ffa57613ff9613f9d565b5b92915050565b7f46756e64696e6720546172676574205769696c20426520526561636865642c2060008201527f547279206c657373657220616d6f756e74210000000000000000000000000000602082015250565b600061405c603283613e8e565b915061406782614000565b604082019050919050565b6000602082019050818103600083015261408b8161404f565b9050919050565b60006040820190506140a76000830185613e1a565b6140b46020830184613e1a565b9392505050565b6000815190506140ca81613a2d565b92915050565b6000602082840312156140e6576140e5613a28565b5b60006140f4848285016140bb565b91505092915050565b7f416c6c6f77616e636520697320746f6f206c6f77210000000000000000000000600082015250565b6000614133601583613e8e565b915061413e826140fd565b602082019050919050565b6000602082019050818103600083015261416281614126565b9050919050565b7f596f7527726520747279696e6720746f20627579206c6f636b20746f6b656e7360008201527f2100000000000000000000000000000000000000000000000000000000000000602082015250565b60006141c5602183613e8e565b91506141d082614169565b604082019050919050565b600060208201905081810360008301526141f4816141b8565b9050919050565b7f6465706f73697420706572696f64206f76657221000000000000000000000000600082015250565b6000614231601483613e8e565b915061423c826141fb565b602082019050919050565b6000602082019050818103600083015261426081614224565b9050919050565b6000614272826139f4565b915061427d836139f4565b925082820261428b816139f4565b915082820484148315176142a2576142a1613f9d565b5b5092915050565b60006040820190506142be60008301856139fe565b6142cb60208301846139fe565b9392505050565b60006142dd826139f4565b91507fffffffffffffffffffffffffffffffffffffffffffffffffffffffffffffffff820361430f5761430e613f9d565b5b600182019050919050565b600061432582613ca5565b9050919050565b6143358161431a565b82525050565b60006060820190506143506000830186613e1a565b61435d602083018561432c565b61436a60408301846139fe565b949350505050565b60008151905061438181613d4c565b92915050565b60006020828403121561439d5761439c613a28565b5b60006143ab84828501614372565b91505092915050565b7f5472616e73666572204661696c65642100000000000000000000000000000000600082015250565b60006143ea601083613e8e565b91506143f5826143b4565b602082019050919050565b60006020820190508181036000830152614419816143dd565b9050919050565b6000606082019050614435600083018661432c565b6144426020830185613e1a565b61444f60408301846139fe565b949350505050565b7f53616c6520656e642074696d652073686f756c64206265206d6f72652074686160008201527f6e2063757272656e742074696d65210000000000000000000000000000000000602082015250565b60006144b3602f83613e8e565b91506144be82614457565b604082019050919050565b600060208201905081810360008301526144e2816144a6565b9050919050565b60008160001c9050919050565b600060ff82169050919050565b6000614516614511836144e9565b6144f6565b9050919050565b61452681613a86565b82525050565b60008160081c9050919050565b600060ff82169050919050565b60006145596145548361452c565b614539565b9050919050565b61456981613aa1565b82525050565b6000819050919050565b600061458c614587836144e9565b61456f565b9050919050565b61459c816139f4565b82525050565b60e0820160008083015490506145b781614503565b6145c4600086018261451d565b506145ce81614546565b6145db6020860182614560565b50600183015490506145ec81614579565b6145f96040860182614593565b506002830154905061460a81614579565b6146176060860182614593565b506003830154905061462881614579565b6146356080860182614593565b506004830154905061464681614579565b61465360a0860182614593565b506005830154905061466481614579565b61467160c0860182614593565b5050505050565b600060e08201905061468d60008301846145a2565b92915050565b7f53616c6520616e642041636365707420746f6b656e2063616e2774206265207460008201527f68652073616d6521000000000000000000000000000000000000000000000000602082015250565b60006146ef602883613e8e565b91506146fa82614693565b604082019050919050565b6000602082019050818103600083015261471e816146e2565b9050919050565b7f596f7527726520747279696e6720746f2062757920696e204c6f636b696e207360008201527f616c652100000000000000000000000000000000000000000000000000000000602082015250565b6000614781602483613e8e565b915061478c82614725565b604082019050919050565b600060208201905081810360008301526147b081614774565b9050919050565b7f576974686472617720706572696f64206e6f7420737461727465642100000000600082015250565b60006147ed601c83613e8e565b91506147f8826147b7565b602082019050919050565b6000602082019050818103600083015261481c816147e0565b9050919050565b7f52657175657374656420616d6f756e7420697320686967686572207468616e2060008201527f6e657420776974686472617761626c6520616d6f756e74204f5220757365722060208201527f68617320616c72656164792077697468647261776e20616c6c2074686520646560408201527f706f736974416d6f756e74000000000000000000000000000000000000000000606082015250565b60006148cb606b83613e8e565b91506148d682614823565b608082019050919050565b600060208201905081810360008301526148fa816148be565b9050919050565b600061490c826139f4565b9150614917836139f4565b925082820390508181111561492f5761492e613f9d565b5b92915050565b600060408201905061494a6000830185613e1a565b61495760208301846139fe565b9392505050565b7f4e487b7100000000000000000000000000000000000000000000000000000000600052601260045260246000fd5b6000614998826139f4565b91506149a3836139f4565b9250826149b3576149b261495e565b5b828204905092915050565b7f4c6f636b696e20646561646c696e652074696d652073686f756c64206265206d60008201527f6f7265207468616e2063757272656e742074696d652100000000000000000000602082015250565b6000614a1a603683613e8e565b9150614a25826149be565b604082019050919050565b60006020820190508181036000830152614a4981614a0d565b9050919050565b7f526174652063616e2774206265207a65726f2100000000000000000000000000600082015250565b6000614a86601383613e8e565b9150614a9182614a50565b602082019050919050565b60006020820190508181036000830152614ab581614a79565b9050919050565b7f53616c65206973206c6976652063757272656e746c7921000000000000000000600082015250565b6000614af2601783613e8e565b9150614afd82614abc565b602082019050919050565b60006020820190508181036000830152614b2181614ae5565b9050919050565b7f53746172742074696d652073686f756c64206265206d6f7265207468616e206360008201527f757272656e742074696d65210000000000000000000000000000000000000000602082015250565b6000614b84602c83613e8e565b9150614b8f82614b28565b604082019050919050565b60006020820190508181036000830152614bb381614b77565b9050919050565b7f456e6474696d652063616e2774206265206c657373207468656e20737461727460008201527f2074696d65210000000000000000000000000000000000000000000000000000602082015250565b6000614c16602683613e8e565b9150614c2182614bba565b604082019050919050565b60006020820190508181036000830152614c4581614c09565b9050919050565b7f4d696e696d756d20416d6f756e742063616e2774206265207a65726f21000000600082015250565b6000614c82601d83613e8e565b9150614c8d82614c4c565b602082019050919050565b60006020820190508181036000830152614cb181614c75565b9050919050565b7f4d617820616d6f756e742063616e2774206265206c657373207468616e206d6960008201527f6e20616d6f756e74210000000000000000000000000000000000000000000000602082015250565b6000614d14602983613e8e565b9150614d1f82614cb8565b604082019050919050565b60006020820190508181036000830152614d4381614d07565b9050919050565b7f46756e64696e67207461726765742063616e2774206265207a65726f21000000600082015250565b6000614d80601d83613e8e565b9150614d8b82614d4a565b602082019050919050565b60006020820190508181036000830152614daf81614d73565b9050919050565b7f53616c652074696d65206469646e2774206d6174636821000000000000000000600082015250565b6000614dec601783613e8e565b9150614df782614db6565b602082019050919050565b60006020820190508181036000830152614e1b81614ddf565b9050919050565b7f4f776e61626c653a206e6577206f776e657220697320746865207a65726f206160008201527f6464726573730000000000000000000000000000000000000000000000000000602082015250565b6000614e7e602683613e8e565b9150614e8982614e22565b604082019050919050565b60006020820190508181036000830152614ead81614e71565b9050919050565b7f5265656e7472616e637947756172643a207265656e7472616e742063616c6c00600082015250565b6000614eea601f83613e8e565b9150614ef582614eb4565b602082019050919050565b60006020820190508181036000830152614f1981614edd565b9050919050565b7f4f776e61626c653a2063616c6c6572206973206e6f7420746865206f776e6572600082015250565b6000614f56602083613e8e565b9150614f6182614f20565b602082019050919050565b60006020820190508181036000830152614f8581614f49565b905091905056fea2646970667358221220e30b3e35af22c12b603526936dc12072587ca0521bf20ae1d5ad1ffd79f28a0d64736f6c63430008120033",
  "linkReferences": {},
  "deployedLinkReferences": {}
}